{
  "contractName": "MyToken",
  "abi": [
    {
      "constant": true,
      "inputs": [],
      "name": "creator",
      "outputs": [
        {
          "name": "",
          "type": "address"
        }
      ],
      "payable": false,
      "stateMutability": "view",
      "type": "function"
    },
    {
      "constant": false,
      "inputs": [
        {
          "name": "receiver",
          "type": "address"
        },
        {
          "name": "amount",
          "type": "uint256"
        }
      ],
      "name": "sendTokens",
      "outputs": [
        {
          "name": "",
          "type": "bool"
        }
      ],
      "payable": false,
      "stateMutability": "nonpayable",
      "type": "function"
    },
    {
      "constant": true,
      "inputs": [],
      "name": "totalSupply",
      "outputs": [
        {
          "name": "",
          "type": "uint256"
        }
      ],
      "payable": false,
      "stateMutability": "view",
      "type": "function"
    },
    {
      "constant": true,
      "inputs": [
        {
          "name": "",
          "type": "address"
        }
      ],
      "name": "balances",
      "outputs": [
        {
          "name": "",
          "type": "uint256"
        }
      ],
      "payable": false,
      "stateMutability": "view",
      "type": "function"
    },
    {
      "constant": true,
      "inputs": [
        {
          "name": "owner",
          "type": "address"
        }
      ],
      "name": "balanceOf",
      "outputs": [
        {
          "name": "",
          "type": "uint256"
        }
      ],
      "payable": false,
      "stateMutability": "view",
      "type": "function"
    },
    {
      "inputs": [],
      "payable": false,
      "stateMutability": "nonpayable",
      "type": "constructor"
    }
  ],
  "bytecode": "0x6060604052341561000f57600080fd5b336000806101000a81548173ffffffffffffffffffffffffffffffffffffffff021916908373ffffffffffffffffffffffffffffffffffffffff1602179055506103e8600181905550600154600260008060009054906101000a900473ffffffffffffffffffffffffffffffffffffffff1673ffffffffffffffffffffffffffffffffffffffff1673ffffffffffffffffffffffffffffffffffffffff168152602001908152602001600020819055506103a4806100ce6000396000f30060606040526004361061006d576000357c0100000000000000000000000000000000000000000000000000000000900463ffffffff16806302d05d3f1461007257806305ab421d146100c757806318160ddd1461012157806327e235e31461014a57806370a0823114610197575b600080fd5b341561007d57600080fd5b6100856101e4565b604051808273ffffffffffffffffffffffffffffffffffffffff1673ffffffffffffffffffffffffffffffffffffffff16815260200191505060405180910390f35b34156100d257600080fd5b610107600480803573ffffffffffffffffffffffffffffffffffffffff16906020019091908035906020019091905050610209565b604051808215151515815260200191505060405180910390f35b341561012c57600080fd5b610134610311565b6040518082815260200191505060405180910390f35b341561015557600080fd5b610181600480803573ffffffffffffffffffffffffffffffffffffffff16906020019091905050610317565b6040518082815260200191505060405180910390f35b34156101a257600080fd5b6101ce600480803573ffffffffffffffffffffffffffffffffffffffff1690602001909190505061032f565b6040518082815260200191505060405180910390f35b6000809054906101000a900473ffffffffffffffffffffffffffffffffffffffff1681565b60008033905060008311151561021e57600080fd5b82600260008373ffffffffffffffffffffffffffffffffffffffff1673ffffffffffffffffffffffffffffffffffffffff168152602001908152602001600020541015151561026c57600080fd5b82600260008373ffffffffffffffffffffffffffffffffffffffff1673ffffffffffffffffffffffffffffffffffffffff1681526020019081526020016000206000828254039250508190555082600260008673ffffffffffffffffffffffffffffffffffffffff1673ffffffffffffffffffffffffffffffffffffffff16815260200190815260200160002060008282540192505081905550600191505092915050565b60015481565b60026020528060005260406000206000915090505481565b6000600260008373ffffffffffffffffffffffffffffffffffffffff1673ffffffffffffffffffffffffffffffffffffffff1681526020019081526020016000205490509190505600a165627a7a723058202472706298aba77ae417ae83601d299e563fe9e534c0ba4110ac4ea5f69b80770029",
  "source": "pragma solidity ^0.4.17;\n\ncontract MyToken {\n    address public creator;\n    uint public totalSupply;\n    mapping (address => uint) public balances;\n    \n  function MyToken() public {\n    creator = msg.sender;\n    totalSupply = 1000;\n    balances[creator] = totalSupply;\n  }\n  \n  function balanceOf(address owner) public constant returns (uint) {\n    return balances[owner];\n  }\n  \n  function sendTokens(address receiver, uint amount) public returns(bool) {\n    address owner = msg.sender;\n    \n    require(amount > 0);\n    require(balances[owner] >= amount);\n    \n    balances[owner] -= amount;\n    balances[receiver] += amount;\n    return true;\n    }\n    \n    /* DO ON TRUFFLE DEVELOP:\nowner = web3.eth.accounts[0]\ninstance = MyToken.at('[DEPLOYED_ADDRESS]')\n instance.balanceOf(owner)\n    TO SEND TOKENS\n\namount = 10\nrecipient = web3.eth.accounts[1]\ninstance.sendTokens(recipient, amount, { from: owner })\n\ninstance.balanceOf(owner)\ninstance.balanceOf(recipient)\n*/\n\n/* TEST FILE:\nconst MyToken = artifacts.require('MyToken')\ncontract('MyToken', accounts => {\n  it('has a total supply and a creator', async function () {\n    const owner = accounts[0]\n    const myToken = await MyToken.new({ from: owner })\n    const creator = await myToken.creator()\n    const totalSupply = await myToken.totalSupply()\n    assert(creator === owner)\n    assert(totalSupply.eq(10000))\n    \n  it('allows token transfers', async function () {\n    const owner = accounts[0]\n    const recipient = accounts[1]\n    const myToken = await MyToken.new({ from: owner })\n    await myToken.sendTokens(recipient, 10, { from: owner })\n    const ownerBalance = await myToken.balanceOf(owner)\n    assert(ownerBalance.eq(9990))\n    const recipientBalance = await myToken.balanceOf(recipient)\n    assert(recipientBalance.eq(10))\n})\n */\n    \n}\n    ",
  "sourcePath": "C:\\Users\\Rahul\\Desktop\\Rahul\\SOLIDITY\\mytoken\\contracts\\MyToken.sol",
  "compiler": {
    "name": "solc",
    "version": "0.4.18+commit.9cf6e910.Emscripten.clang"
  },
  "schemaVersion": "1.0.1",
  "updatedAt": "2018-01-18T15:23:59.893Z"
}